:020000040800F2
:1000000000040020D10100089103000891030008BA
:100010009103000891030008910300089103000870
:10002000910300089103000891030008610800088B
:1000300091030008910300089103000801080008DB
:100040009103000891030008910300089103000840
:100050009103000891030008910300089103000830
:10006000910300089103000891030008910700081C
:10007000610700083107000801070008D1060008E1
:10008000A10600087106000891030008910300080A
:1000900091030008910300089103000891030008F0
:1000A00091030008910300089103000891030008E0
:1000B00091030008910300089103000891030008D0
:1000C00091030008910300089103000891030008C0
:1000D0009103000891030008E1070008C107000828
:1000E00091030008910300089103000891030008A0
:1000F0009103000891030008910300089103000890
:10010000910300089103000891030008910300087F
:10011000910300089103000891030008910300086F
:100120004106000811060008E1050008B1050008B5
:10013000810500089103000891030008910300085D
:10014000910300089103000891030008910300083F
:10015000910300089103000891030008910300082F
:10016000910300089103000891030008910300081F
:10017000910300089103000891030008910300080F
:1001800091030008910300089103000891030008FF
:1001900091030008910300089103000891030008EF
:1001A0002DE9F04F2DED108AC1F80CD0C3689D46A3
:1001B000BDEC108ABDE8F08F002383F31188284638
:1001C000A047002000F03CFC00F062FC00DFFEE7EE
:1001D00072B6344880F3098840F20000CCF2000087
:1001E0004EF63471CEF200010860BFF34F8FBFF3BB
:1001F0006F8F40F20000C0F2F0004EF68851CEF250
:1002000000010860BFF34F8FBFF36F8F4FF0000006
:10021000E1EE100A4EF63C71CEF2000108600620B5
:1002200080F31488BFF36F8F00F002FC00F0B8FE7B
:100230004FF055301C491D4A91423CBF41F8040B18
:10024000FAE71B49174A91423CBF41F8040BFAE711
:100250001849194A194B9A423EBF51F8040B42F80B
:10026000040BF8E700201649164A91423CBF41F8BA
:10027000040BFAE700F094FB00F0D2FB124C134D94
:10028000AC4203DA54F8041B8847F9E700F020FC7D
:100290000F4C104DAC4203DA54F8041B8847F9E7C1
:1002A00000F0B6BB00080020000000200004002081
:1002B0000004002070120008000800200008002040
:1002C0000008002070210020A0010008A001000803
:1002D000A0010008A00100080000000000000000CC
:1002E000014B5B6883607047001000E00000000075
:1002F000F0B50021022508E01A6A22EA0404264328
:100300001E6240082DD0AD000131C307F9D51F4B47
:1003100001225C688A4024EA02025A604E000322ED
:100320009C68B240D24314409C60DE6801F0070430
:100330001640A4004FF0070E0F27022DDE600EFAC4
:1003400004F607FA04F40DD01F683A402A4307293F
:100350001A60D1D95A6A22EA0404264340085E6230
:10036000D1D1F0BD71450BD81F6A27EA040426439A
:100370001E62064C23681A4042F002022260C0E767
:100380005F6A27EA040426435E62F2E70008004839
:10039000FEE700BF000000000000000000000000B9
:1003A0002DE9F04186683768F469346240F20F1332
:1003B00023400546CBB143689B69B3B114F0080FE5
:1003C0000CBF00211021E20748BF41F00401A00743
:1003D00048BF41F00801620748BF41F02001E00535
:1003E00048BF41F0400128469847620601D57B0688
:1003F00017D4780401D5A1030CD4FA0608D5E30676
:1004000006D56B68DB681BB12846BDE8F04118478C
:10041000BDE8F0816B681B69002BEED02846984739
:10042000EBE76B685B6827F040023260002BE0D09E
:1004300028469847DDE700BF0000000000000000EC
:100440000E4B0F495A688368F0B40F6E4168C66856
:10045000D0E90445D31ADB1BE4180268836045F138
:1004600000058B4206F1010688BF43609342C660D7
:10047000C0E9044538BF0360F0BC7047001000E0DD
:100480003812002000000000000000000000000002
:10049000FEE700BF000000000000000000000000B8
:1004A00010B4202383F31188037C072B0ED8DFE8D8
:1004B00003F0270D0D2308040D08426993680133EA
:1004C000936090E80C001A60026853604FF0FF34AC
:1004D000002281680D4B446102741B689A688A424D
:1004E000FBD25A684260036000211060586081F3BB
:1004F00011885DF8044B7047436900221A60E5E7F4
:10050000002383F311885DF8044B704738120020F4
:10051000202383F31188124B5B6813F4006302D12C
:1005200083F311887047F1EE103AEFF309830D4A17
:100530004FF08071D26843F8082C43F84C1CA3F1AB
:10054000680282F30988084A11681269896892680A
:1005500091428CBF054A064A43F8502C704700BFB1
:1005600000ED00E030EF00E038120020C901000883
:10057000CC010008000000000000000000000000A6
:10058000094B1968C1F3034159B10848826D10B590
:100590000C045C600AB1C06D9047BDE81040FFF7E5
:1005A000B7BFFFF7B5BF00BF00040240000800203E
:1005B000094B1968C1F3033159B10848026D10B5F0
:1005C0000C035C600AB1406D9047BDE81040FFF736
:1005D0009FBFFFF79DBF00BF00040240000800203E
:1005E000094B1968C1F3032159B10848826C10B551
:1005F0000C025C600AB1C06C9047BDE81040FFF788
:1006000087BFFFF785BF00BF00040240000800203D
:10061000094B1968C1F3031159B10848026C10B5B0
:100620000C015C600AB1406C9047BDE81040FFF7D8
:100630006FBFFFF76DBF00BF00040240000800203D
:1006400008B5074B196811F00F0105D0054A59602C
:10065000936B0BB1D06B9847BDE80840FFF758BFCC
:10066000000402400008002000000000000000001C
:10067000094B1968C1F3036159B10848026B10B501
:100680000C065C600AB1406B9047BDE81040FFF774
:100690003FBFFFF73DBF00BF000002400008002041
:1006A000094B1968C1F3035159B10848826A10B562
:1006B0000C055C600AB1C06A9047BDE81040FFF7C6
:1006C00027BFFFF725BF00BF000002400008002041
:1006D000094B1968C1F3034159B10848026A10B5C2
:1006E0000C045C600AB1406A9047BDE81040FFF717
:1006F0000FBFFFF70DBF00BF000002400008002041
:10070000094B1968C1F3033159B10848826910B522
:100710000C035C600AB1C0699047BDE81040FFF768
:10072000F7BEFFF7F5BE00BF000002400008002042
:10073000094B1968C1F3032159B10848026910B582
:100740000C025C600AB140699047BDE81040FFF7B9
:10075000DFBEFFF7DDBE00BF000002400008002042
:10076000094B1968C1F3031159B10848826810B5E3
:100770000C015C600AB1C0689047BDE81040FFF70B
:10078000C7BEFFF7C5BE00BF000002400008002042
:1007900008B5074B196811F00F0105D0054A5960DB
:1007A00013680BB150689847BDE80840FFF7B0BE2A
:1007B00000000240000800200000000000000000CF
:1007C00008B50348FFF7ECFDBDE80840FFF7A0BE01
:1007D00020160020000000000000000000000000C3
:1007E00008B50348FFF7DCFDBDE80840FFF790BE01
:1007F00000160020000000000000000000000000C3
:1008000070B5202383F31188124C2646226A56F8CD
:10081000143F0132B342226214D09A68013A9A60BE
:1008200082B91968DD680022DA604E60616182F386
:1008300011881869A847202383F3118863699A688F
:10084000002AEED0002383F31188BDE87040FFF743
:100850005FBE00BF38120020000000000000000052
:10086000064A536823F001035360EFF309836833AA
:1008700083F30988002383F31188704730EF00E089
:10088000074B19691A6810B40874106818600124BD
:1008900043601A61147410465DF8044BFFF780BC86
:1008A00038120020000000000000000000000000DE
:1008B00080B5204D204C86B001AE2B691F495B6B83
:1008C0004FF47A7202FB03F303F2E733A1FB032335
:1008D0009B09202282F311886A692869916804942F
:1008E0008B42059004D912685B1A91689942FAD339
:1008F0005168029101920E605660039391680D4F0A
:10090000CB1A93604FF0FF380820C5F81C80FFF722
:10091000B7FF049B53B1019B039A996802980A445C
:100920009A600360019B5860C7F81C80002383F322
:100930001188C2E738120020A1040008D34D6210CC
:1009400008B5FFF7B5FF00BF000000000000000081
:1009500008B5FFF7ADFF00BF000000000000000079
:1009600008B5FFF7A5FF00BF000000000000000071
:1009700008B5FFF79DFF00BF000000000000000069
:1009800008B5FFF795FF00BF000000000000000061
:1009900008B5FFF78DFF00BF000000000000000059
:1009A000F0B4144E144D154C154B164906F1700752
:1009B0009C4212D904391A4651F8040F42F8040B2C
:1009C0009442F9D8DA43144424F003040434234451
:1009D0009D4204D9002243F8042B9D42FAD8BE421E
:1009E00005D031697369B469F5691036E0E7F0BC88
:1009F000704700BF00110008702100207021002006
:100A000070210020701200080000000000000000AB
:100A1000FEE700BF00000000000000000000000032
:100A2000704700BF00000000000000000000000050
:100A3000704700BF00000000000000000000000040
:100A400030B4202383F311880E4B1D69AC696861B3
:100A500005F11800844211D02268A168094BAA61EF
:100A6000002222741B689A688A42FBD25A6862602C
:100A7000236014605C60AC698442EDD10F2030BC0F
:100A8000FFF7FEBE3812002000000000000000004A
:100A90000D4A1068036810B40121146913605A608C
:100AA000106101740022A168227400E01B689A683A
:100AB0008A42FBD85A6862602360214614605C60F9
:100AC0005DF8044BFFF76CBB3812002000000000FB
:100AD000194B1A489A6A4FF0FF3100222DE9F04F66
:100AE00099629A621C6919611A61DC68D960DA60DE
:100AF000D96941F08051D961016841F48071016088
:100B0000196A01F44071B1F5007F87B003D04FF44A
:100B1000803119621A62084B1A6A120407D41A6AE1
:100B200042F400721A621A6A42F400421A62044ADB
:100B30000449054800230AE000100240007000400C
:100B400080110008080002400008002051680024BD
:100B50000C6040F8334001330C2B02F11402F5D144
:100B6000A84FA949A948AA4DDFF80093DFF800C3B0
:100B7000A84ADFF800E3A84B4FF0FF367E604E60D6
:100B80008169A64F41F001018161296841F020018E
:100B90002960D0F81480A24DA24948F47F08C0F81B
:100BA00014804FF090406FF40A684460C0F80880E9
:100BB0004FF6DF78C0F80C90C0F814804FF4EE497F
:100BC000DFF8B482C0F8209044624FF05539C0F885
:100BD00000804FF6FF704FF08008CCF80440CCF84E
:100BE0000860CCF80C90CCF81400CCF82040CCF87D
:100BF0002440CCF80080DFF884C254609660C2F8CC
:100C00000CC05061146254621460874ACEF80440EC
:100C1000CEF80860CEF80C90CEF81400CEF8204044
:100C2000CEF82440CEF80040DFF854E25C609E60CD
:100C3000C3F80C9058611C625C621C607C607B4B4A
:100C4000BE60C7F80C9078613C627C623C606C606E
:100C5000AC60C5F80C9068612C626C622C604C60D2
:100C60008C60C1F80C9048614FF001090C624C6235
:100C70000C606F49DFF80CC282F80090AEF13C00C6
:100C8000547091600EF1140191615861694F6A4985
:100C90006A48947083F800905C709C705460C2F84D
:100CA00014E05C609960664DCCF804000720CCF835
:100CB0000840AEF15001CCF800004FF0080E87F864
:100CC00023804FF48060D560DD605E4DC2F810E097
:100CD000C3F810E09961FFF70BFB4FF40060FFF7DA
:100CE00007FB05F114010022002368462D606D60AA
:100CF000CDE904236961A9610096EE610194029433
:100D00000394AC602C622C66FFF7EAFA6846FFF7A2
:100D100097FB029B2B66BC60FA684B4B4B4EC5F8A9
:100D200030804FF6FF0111400B43FB60F3684848E9
:100D300085F8394043F08073F3600368C5F8548048
:100D400043EA09032C65EC6485F838904FF0100EE7
:100D5000036005F1400605F1440305F12801202256
:100D600087F81FE02E64296187F822206B64AB644A
:100D700084F3118862B682F31188364A2969C2F871
:100D80002891022382F8303182F83141C2F84C9127
:100D9000C2F84441C2F8344188682F4FDFF8E8C0F8
:100DA000C2F8004102F59E7302F1BC0E02F59C767A
:100DB000C2F84841C2F82CE1C2F8FC70C2F83861B0
:100DC000C2F83C31C2F84031C2F81CC1002800F022
:100DD000E18082F830412B461B6898680028FBD1DF
:100DE000C2F820315C681D49C2F824412160596075
:100DF00080F311881A4ADFF894801A491A4B044686
:100E0000C6264AE0000002400004024000100240F2
:100E1000000001400008004800100048001400488D
:100E200000180048001C0048001600202016002072
:100E30000044004000ED00E0004800403F19010080
:100E400080A81201381200200003FA05F0ED00E03E
:100E5000001000E08819002091040008A81A002062
:100E60003C100008910900088819002005515565BB
:100E700000040048000C0048A004002855555551B6
:100E8000E411000810E000E0B90100089812002009
:100E9000536B566AD169106A1C324FF0200E8EF3E4
:100EA00011884FF0020AA3F11C07A3F19C0BA3F1D8
:100EB000200943F85C1C002143F8306C43F80C6CAB
:100EC00043F8580C43F83CCC43F82CBC03F828AC4E
:100ED00043F8209C43F81C7C43F8187C03F8271C3B
:100EE00043F8101C43F8141CA3F1380681F3118851
:100EF000D06848F8046F013443F8080C106943F8CF
:100F0000040C072CC4D18EF311882F6A81F3118849
:100F10008846214EA6F11C0454F8043F2021186B8A
:100F200081F3118800222B6A82F31188DB1B98421F
:100F300003D82068037C022B0AD0A642ECD1B8F17A
:100F4000070FE6D90020FFF77BFD07B0BDE8F08F63
:100F500081F31188114B816802741B689A68914271
:100F6000FBD95A684260036000211060586081F329
:100F70001188202308F1010883F311882A682B695E
:100F800092689B689A4201D9FFF782FD002383F3A0
:100F90001188D2E70874FEE7B4120020381200204E
:100FA000234A136843F001031360214B1A68920728
:100FB000FBD55A6822F003025A605A685A601C4AEC
:100FC000536813F00C03FAD1116801F0F9011160B4
:100FD0005360136843F480331360154B1A68900311
:100FE000FBD55A6A42F001025A62114B5A6A9107C4
:100FF000FBD5104A5A6042F201113022D9621A63BD
:101000001A6842F080721A60094B1A689201FBD587
:10101000094A122111605A6842F002025A60044AD9
:10102000536803F00C03082BF9D1136B136370475B
:0C10300000100240002D1D0000200240B6
:10103C009109000800000000C6000000000000003C
:10104C0002000000401600208819002081090008C9
:10105C0000000000BC0000000000000005000000C3
:10106C00F00E00203812002071090008000000006A
:10107C00B2000000000000000A000000E01A00208E
:10108C00281E00206109000800000000A8000000D4
:10109C00000000001400000060080020A80B0020D5
:1010AC0051090008000000009E0000000000000034
:1010BC0028000000281E0020702100204109000893
:1010CC000000000094000000000000005000000030
:1010DC00A80B0020F00E0020B10800080000000052
:1010EC008A0000000000000064000000B81200201C
:1010FC0000160020701200087021002070210020C2
:10110C007021002070120008000000000000000098
:10111C000000000070120008000000000000000039
:10112C000000000070120008000000000000000029
:10113C0000000000701200080000001000000010F9
:10114C0000000010701200080000000000000000F9
:10115C0000000000701200080000000000000000F9
:10116C0000000000701200080000000000000000E9
:10117C0000000000000002400800024001000000D6
:10118C000000000000000B00000002401C000240A8
:10119C00020000000000000004010C0000000240EE
:1011AC0030000240040000000000000008020D00A6
:1011BC000000024044000240080000000000000053
:1011CC000C030E000000024058000240100000000A
:1011DC000000000010040F00000002406C000240F0
:1011EC002000000000000000140510000000024068
:1011FC0080000240400000000000000018061100B2
:10120C0000040240080402408000000000000000BE
:10121C0000073800000402401C04024000010000DA
:10122C0000000000040839000004024030040240B1
:10123C00000200000000000008093A00000402400F
:10124C004404024000040000000000000C0A3B00B3
:10125C000004024058040240000800000000000096
:04126C00100B3C0027
:04000005080001D11D
:00000001FF
