:020000040800F2
:1000000000040020D1010008910A0008910A0008AC
:10001000910A0008910A0008910A0008910A000854
:10002000910A0008910A0008910A0008A126000818
:10003000910A0008910A0008910A0008510F00086F
:10004000910A0008910A0008910A0008910A000824
:10005000910A0008910A0008910A0008910A000814
:10006000910A0008910A0008910A0008E1040008BA
:1000700051050008C105000831060008A106000866
:100080001107000881070008910A0008910A00087A
:10009000910A0008910A0008910A0008910A0008D4
:1000A000910A0008910A0008910A0008910A0008C4
:1000B000910A0008910A0008910A0008910A0008B4
:1000C000910A0008910A0008910A0008910A0008A4
:1000D000910A0008910A0008B1030008D103000842
:1000E000910A0008910A0008910A0008910A000884
:1000F000910A0008910A0008910A0008910A000874
:10010000910A0008910A0008910A0008910A000863
:10011000910A0008910A0008910A0008910A000853
:10012000F107000861080008D1080008410900082B
:10013000B1090008910A0008910A0008910A000814
:10014000910A0008910A0008910A0008910A000823
:10015000910A0008910A0008910A0008910A000813
:10016000910A0008910A0008910A0008910A000803
:10017000910A0008910A0008910A0008910A0008F3
:10018000910A0008910A0008910A0008910A0008E3
:10019000910A0008910A0008910A0008910A0008D3
:1001A0002DE9F04F2DED108AC1F80CD0C3689D46A3
:1001B000BDEC108ABDE8F08F002383F31188284638
:1001C000A047002000F074FF01F0BAFA00DFFEE75C
:1001D00072B6344880F3098840F20000CCF2000087
:1001E0004EF63471CEF200010860BFF34F8FBFF3BB
:1001F0006F8F40F20000C0F2F0004EF68851CEF250
:1002000000010860BFF34F8FBFF36F8F4FF0000006
:10021000E1EE100A4EF63C71CEF2000108600620B5
:1002200080F31488BFF36F8F01F0AAF802F008FA88
:100230004FF055301C491D4A91423CBF41F8040B18
:10024000FAE71B49174A91423CBF41F8040BFAE711
:100250001849194A194B9A423EBF51F8040B42F80B
:10026000040BF8E700201649164A91423CBF41F8BA
:10027000040BFAE701F09CF801F08AF8124C134DD8
:10028000AC4203DA54F8041B8847F9E700F0E8F8B9
:100290000F4C104DAC4203DA54F8041B8847F9E7C1
:1002A00001F07EB8000800200000002000040020BB
:1002B000000400202C2C000800080020000800206A
:1002C00000080020AC210020A0010008A0010008C7
:1002D000A0010008A00100080000000000000000CC
:1002E00010B586B00190019B9B680593059B1B6828
:1002F0000493059BDB690393059B039A1A62039A97
:1003000040F20F131340002B0ED0019B5B689B69DA
:10031000002B09D0019B5B689C69039800F058FE94
:10032000034619460198A047039B03F04003002BA6
:1003300013D0049B03F04003002B0ED0049B23F04A
:100340004002059B1A60019B5B685B68002B04D030
:10035000019B5B685B6801989847049B03F48043AA
:10036000002B0ED0039B03F40033002B09D0019B1C
:100370005B681B69002B04D0019B5B681B690198BB
:100380009847049B03F01003002B0ED0039B03F04F
:100390001003002B09D0019B5B68DB68002B04D0A5
:1003A000019B5B68DB680198984706B010BD00BFF1
:1003B00008B50348FFF794FF02F092F908BD00BFAB
:1003C00008210020000000000000000000000000E4
:1003D00008B50348FFF784FF02F082F908BD00BFAB
:1003E00028210020000000000000000000000000A4
:1003F00008B5124800F0DCFD104B114A9A600F4B13
:10040000104ADA600D4B08221A610C4B0E4A5A61F1
:100410000A4B0E4A9A610E4800F0CAFD0C4B0D4A79
:100420009A600B4B074ADA60094B08221A61084BA5
:10043000094A5A61064B094A9A6108BD0821002001
:100440000044004080A81201A02B0008B42B000833
:100450002821002000480040642B0008502B000891
:1004600008B500F0E5FF40F282324FF480610E489B
:1004700000F066FC40F282324FF400610A4800F05E
:100480005FFC0A2001F07CFB4FF4FA730222642126
:10049000002001F02DFC01F06BFF01F0D9FF0020DE
:1004A00000F006FE08BD00BF000800480000000084
:1004B00082B001900091064A009BDBB21B01D9B2C9
:1004C000019B134418330A461A7002B0704700BFEC
:1004D00000ED00E00000000000000000000000004F
:1004E00000B583B000230193144B1B680022D34056
:1004F00003F00F030093009B03F00F03002B17D0B2
:100500000E4A00231946009B8B4053600C4A019B06
:1005100052F83330002B0BD0094A019B52F833209C
:100520000749019BDB000B445B6800991846904724
:1005300002F0D6F803B05DF804FB00BF00000240F3
:100540004821002000000000000000000000000022
:1005500000B583B001230193144B1B680422D340E0
:1005600003F00F030093009B03F00F03002B17D041
:100570000E4A04231946009B8B4053600C4A019B92
:1005800052F83330002B0BD0094A019B52F833202C
:100590000749019BDB000B445B68009918469047B4
:1005A00002F09EF803B05DF804FB00BF00000240BB
:1005B00048210020000000000000000000000000B2
:1005C00000B583B002230193144B1B680822D3406B
:1005D00003F00F030093009B03F00F03002B17D0D1
:1005E0000E4A08231946009B8B4053600C4A019B1E
:1005F00052F83330002B0BD0094A019B52F83320BC
:100600000749019BDB000B445B6800991846904743
:1006100002F066F803B05DF804FB00BF0000024082
:100620004821002000000000000000000000000041
:1006300000B583B003230193144B1B680C22D340F5
:1006400003F00F030093009B03F00F03002B17D060
:100650000E4A0C231946009B8B4053600C4A019BA9
:1006600052F83330002B0BD0094A019B52F833204B
:100670000749019BDB000B445B68009918469047D3
:1006800002F02EF803B05DF804FB00BF000002404A
:1006900048210020000000000000000000000000D1
:1006A00000B583B004230193144B1B681022D34080
:1006B00003F00F030093009B03F00F03002B17D0F0
:1006C0000E4A10231946009B8B4053600C4A019B35
:1006D00052F83330002B0BD0094A019B52F83320DB
:1006E0000749019BDB000B445B6800991846904763
:1006F00001F0F6FF03B05DF804FB00BF000002400C
:100700004821002000000000000000000000000060
:1007100000B583B005230193144B1B681422D3400A
:1007200003F00F030093009B03F00F03002B17D07F
:100730000E4A14231946009B8B4053600C4A019BC0
:1007400052F83330002B0BD0094A019B52F833206A
:100750000749019BDB000B445B68009918469047F2
:1007600001F0BEFF03B05DF804FB00BF00000240D3
:1007700048210020000000000000000000000000F0
:1007800000B583B006230193144B1B681822D34095
:1007900003F00F030093009B03F00F03002B17D00F
:1007A0000E4A18231946009B8B4053600C4A019B4C
:1007B00052F83330002B0BD0094A019B52F83320FA
:1007C0000749019BDB000B445B6800991846904782
:1007D00001F086FF03B05DF804FB00BF000002409B
:1007E0004821002000000000000000000000000080
:1007F00000B583B007230193144B1B680022D3403C
:1008000003F00F030093009B03F00F03002B17D09E
:100810000E4A00231946009B8B4053600C4A019BF3
:1008200052F83330002B0BD0094A019B52F8332089
:100830000749019BDB000B445B6800991846904711
:1008400001F04EFF03B05DF804FB00BF000402405E
:10085000482100200000000000000000000000000F
:1008600000B583B008230193144B1B680422D340C6
:1008700003F00F030093009B03F00F03002B17D02E
:100880000E4A04231946009B8B4053600C4A019B7F
:1008900052F83330002B0BD0094A019B52F8332019
:1008A0000749019BDB000B445B68009918469047A1
:1008B00001F016FF03B05DF804FB00BF0004024026
:1008C000482100200000000000000000000000009F
:1008D00000B583B009230193144B1B680822D34051
:1008E00003F00F030093009B03F00F03002B17D0BE
:1008F0000E4A08231946009B8B4053600C4A019B0B
:1009000052F83330002B0BD0094A019B52F83320A8
:100910000749019BDB000B445B6800991846904730
:1009200001F0DEFE03B05DF804FB00BF00040240EE
:10093000482100200000000000000000000000002E
:1009400000B583B00A230193144B1B680C22D340DB
:1009500003F00F030093009B03F00F03002B17D04D
:100960000E4A0C231946009B8B4053600C4A019B96
:1009700052F83330002B0BD0094A019B52F8332038
:100980000749019BDB000B445B68009918469047C0
:1009900001F0A6FE03B05DF804FB00BF00040240B6
:1009A00048210020000000000000000000000000BE
:1009B00000B583B00B230193144B1B681022D34066
:1009C00003F00F030093009B03F00F03002B17D0DD
:1009D0000E4A10231946009B8B4053600C4A019B22
:1009E00052F83330002B0BD0094A019B52F83320C8
:1009F0000749019BDB000B445B6800991846904750
:100A000001F06EFE03B05DF804FB00BF000402407D
:100A1000482100200000000000000000000000004D
:100A200082B0134B00221A600023019312E0114997
:100A3000019A13469B0013449B000B4404331B682C
:100A400000221A600C4A019B002142F83310019BDE
:100A500001330193019B0B2BE9DD084B4FF0FF3273
:100A60005A60074B4FF0FF325A6002B0704700BF28
:100A7000A82100203C2B0008482100200000024053
:100A80000004024000000000000000000000000020
:100A9000FEE700BF000000000000000000000000B2
:100AA000134A134B1B6843F480731360114B1B6A8A
:100AB00003F44073B3F5007F06D00E4B4FF4803241
:100AC0001A620C4B00221A620A4B1B6A03F40043A1
:100AD000002B0BD1074A074B1B6A43F400731362C8
:100AE000044A044B1B6A43F400431362704700BF7F
:100AF00000700040001002400000000000000000F4
:100B000008B5194B9B6A184B4FF0FF329A62164B8F
:100B100000229A62144B1B69134B4FF0FF321A618B
:100B2000114B00221A61104BDB680F4B4FF0FF3264
:100B3000DA600D4B0022DA600B4A0B4BDB6943F0A5
:100B40008053D361FFF7ACFFFFF76AFF064A064BFD
:100B50009B6943F001039361044A044B1B6843F013
:100B60002003136008BD00BF0010024000000140D8
:100B7000334A334B1B6843F001031360304B1B684F
:100B800003F00203002BF9D02D4A2D4B5B6823F0B4
:100B9000030353602A4A2A4B5B685360284B5B6807
:100BA00003F00C03002BF9D1254A254B1B6803F0F9
:100BB000F9031360224B00225A60214A204B1B6824
:100BC00043F4803313601E4B1B6803F40033002B87
:100BD000F9D01B4A1A4B5B6A43F001035362184B6E
:100BE0005B6A03F00203002BF9D0154B154A5A60DB
:100BF000134B42F20112DA62114B30221A63104A8F
:100C00000F4B1B6843F0807313600D4B1B6803F0A0
:100C10000073002BF9D00C4B12221A60084A084BC3
:100C20005B6843F002035360054B5B6803F00C0301
:100C3000082BF9D1024A024B1B6B1363704700BFAC
:100C400000100240002D1D000020024000000000A6
:100C500082B001900091009B5A68019B5A60009BF2
:100C60009A68019B9A60009BDA68019BDA60009B9E
:100C70001A69019B5A61009B5A69019B1A62009B89
:100C80009A69019B5A62009B1A68019B1A6002B024
:100C9000704700BF000000000000000000000000DE
:100CA00000B583B001901C4A1B4B5B6943F47F0382
:100CB0005361019B19464FF09040FFF7C9FF019B1C
:100CC0001C3319461548FFF7C3FF019B38331946FB
:100CD0001348FFF7BDFF019B543319461148FFF736
:100CE000B7FF019B703319460F48FFF7B1FF019B17
:100CF0008C3319460D48FFF7ABFF019BA83319460B
:100D00000B48FFF7A5FF019BC43319460948FFF7BD
:100D10009FFF03B05DF804FB001002400004004890
:100D200000080048000C004800100048001400486B
:100D300000180048001C00480000000000000000EF
:100D40008EB0039002910192019B03F003030D9377
:100D5000019B9B0803F001030C93019BDB0803F04C
:100D600003030B93019B5B0903F003030A93019BAD
:100D7000DB0903F00F03089300230993029B03F0A0
:100D80000103002B77D0099B03F007039B00089A0F
:100D900002FA03F307930122099B02FA03F3069375
:100DA000099B5B00032202FA03F30593099B03F0FE
:100DB00007039B000F2202FA03F30493039B5A6874
:100DC000069BDB431A400C9B1A43039B5A60039B10
:100DD0009A68059BDB431A400B9B1A43039B9A605E
:100DE000039BDA68059BDB431A400A9B1A43039B6B
:100DF000DA600D9B022B1FD1099B072B09D8039B9F
:100E00001A6A049BDB431A40079B1A43039B1A622E
:100E100008E0039B5A6A049BDB431A40079B1A4372
:100E2000039B5A62039B1A68059BDB431A400D9B88
:100E30001A43039B1A601EE0039B1A68059BDB4361
:100E40001A400D9B1A43039B1A60099B072B09D874
:100E5000039B1A6A049BDB431A40079B1A43039BBC
:100E60001A6208E0039B5A6A049BDB431A40079B03
:100E70001A43039B5A62029B5B080293029B002B5E
:100E80000FD00C9B5B000C930B9B9B000B930A9B5E
:100E90009B000A930D9B9B000D93099B01330993C3
:100EA0006CE70EB0704700BF0000000000000000BB
:100EB00008B500F05DF808BD00000000000000006B
:100EC00082B020230193019B83F3118802B0704705
:100ED00082B000230193019B83F3118802B0704715
:100EE00008B5FFF7EDFF08BD00000000000000009E
:100EF00008B5FFF7EDFF08BD00000000000000008E
:100F000008B5FFF7EDFF08BD00000000000000007D
:100F100008B5FFF7EDFF08BD00000000000000006D
:100F200008B5FFF7EDFF08BD00000000000000005D
:100F300008B5FFF7EDFF08BD00000000000000004D
:100F400008B500F045FD08BD0000000000000000ED
:100F500008B5FFF7E5FFFFF7F3FFFFF7E9FF01F043
:100F6000BFFB08BD00000000000000000000000002
:100F700008B5074B074A5A60054B00229A60044B9C
:100F800007221A6008210B20FFF792FA08BD00BF64
:100F900010E000E03F190100000000000000000028
:100FA00008B5FFF725FA08BD0000000000000000AA
:100FB00082B00190019B01221A70019B00225A709D
:100FC000019B00229A70019B00225A6002B0704778
:100FD00084B0019000230393019B03F00803002BCE
:100FE00003D0039B43F010030393019B03F0010321
:100FF000002B03D0039B43F004030393019B03F0F6
:101000000203002B03D0039B43F008030393019BCF
:1010100003F00403002B03D0039B43F0200303934E
:10102000019B03F48073002B03D0039B43F0400328
:101030000393039B184604B0704700BF00000000F4
:1010400000B585B0019000F013FD019800F068FD37
:10105000039000F015FD039B184605B05DF804FBF6
:1010600000B585B0019000F003FD019800F058FD37
:1010700003900021039800F0F3FA00F001FD039BB8
:10108000184605B05DF804FB0000000000000000F9
:1010900000B583B0019000F0EBFC019800F0F8FC83
:1010A000019000F0EDFC019B184603B05DF804FBD5
:1010B00000B583B0019000F0DBFC019800F008F867
:1010C00003B05DF804FB00BF00000000000000005A
:1010D00000B585B001900F4B1B690393039B019AE8
:1010E0005A6108E0039B1833184600F0B1FC034630
:1010F000184600F0C5F9039B1833184600F088FC29
:101100000346002BEED10F2000F00AFA05B05DF87F
:1011100004FB00BF481F002000000000000000008A
:1011200000B583B0019000F0A3FC019800F0C0FC72
:1011300000F0A6FC03B05DF804FB00BF0000000057
:10114000014B5B6818467047001000E0000000008B
:1011500010B485B0039002910192039BDB685A1C86
:10116000039BDA60039B9B68029AD21A019BD21AF6
:10117000039B9A60039BD3E90412039B9B684FF087
:1011800000045B1844EB0204039AC2E90434039B95
:101190009A68039B5B689A4203D9039B9A68039BF6
:1011A0005A60039B9A68039B1B689A4203D2039B75
:1011B0009A68039B1A6005B05DF8044B704700BF46
:1011C00000B587B00A4B00221A666B46184600F03D
:1011D00017F86B46184600F033F86B46184600F0D7
:1011E0003FF8029B024A136607B05DF804FB00BF9C
:1011F000481F002000000000000000000000000068
:1012000010B483B00190019B4FF0FF321A60019B34
:1012100000225A60019B00229A60019B0022DA6042
:10122000019A4FF000034FF00004C2E9043403B008
:101230005DF8044B704700BF000000000000000094
:1012400000B583B00190FFF77BFF0246019B9A60D7
:1012500003B05DF804FB00BF0000000000000000C8
:1012600000B583B00190FFF76BFF0146044B1B6E86
:101270001A460198FFF76CFF03B05DF804FB00BF4E
:10128000481F0020000000000000000000000000D7
:10129000064B074A5A61054B054A9A61034B4FF0CA
:1012A000FF32DA61014B00221A627047481F0020AA
:1012B0005C1F002000000000000000000000000093
:1012C00086B00390029101920093039B009A1A61E9
:1012D000039B019ADA60029B0493174B5B690593A9
:1012E00007E0059B9B68049AD31A0493059B1B682F
:1012F0000593059B9A68049B9A42F2D3039B059A37
:101300001A60039B1B685A68039B5A60039B5B68C7
:10131000039A1A60059B039A5A60039B049A9A6089
:10132000059B9A68049BD21A059B9A60024B4FF06A
:10133000FF32DA6106B07047481F0020000000004D
:1013400082B00190019B1B68019A12689168019A12
:1013500092680A449A60019B5B68019A12681A605D
:10136000019B1B68019A52685A60019B0022DA6057
:10137000024B4FF0FF32DA6102B07047481F002085
:10138000704700BF000000000000000000000000E7
:10139000704700BF000000000000000000000000D7
:1013A000FEE700BF00000000000000000000000099
:1013B00084B0164B0393039B1B680293039B5B68EB
:1013C000019309E0029B1A68019B1A60019B043398
:1013D0000193029B04330293039B9A68019B9A42F8
:1013E000F0D805E0019B00221A60019B04330193B1
:1013F000039BDA68019B9A42F4D8039B1033039352
:10140000039B034A9342D6D304B07047BC2A00081A
:101410003C2B00080000000000000000000000005D
:10142000704700BF00000000000000000000000046
:1014300008B5FFF7F5FFFFF763FB0548FFF730FC42
:10144000FFF7AEFD01F004F9FFF732FD08BD00BF64
:10145000C429000800000000000000000000000097
:1014600008B5034801F0ACF9014B00229A6008BDB1
:10147000481F0020000000000000000000000000E5
:1014800084B00190019B00221A740E4B0393039BBE
:101490001B680393039B9A68019B9B689A42F6D250
:1014A000019B039A1A60039B5A68019B5A60019B37
:1014B0005B68019A1A60039B019A5A60019B184667
:1014C00004B07047481F002000000000000000002A
:1014D00084B00190019B00221A740E4B0393039B6E
:1014E0001B680393039B9A68019B9B689A42F6D8FA
:1014F000019B039A1A60039B5A68019B5A60019BE7
:101500005B68019A1A60039B019A5A60019B184616
:1015100004B07047481F00200000000000000000D9
:1015200000B585B003468DF807300D4B1B6903935A
:10153000039B9DF807201A74094801F051F90246EF
:10154000074B1A61064B1B6901221A74044B1B6975
:1015500003991846FEF724FE05B05DF804FB00BFB2
:10156000481F0020000000000000000000000000F4
:1015700000B585B00190019B039301F069F9039BCD
:101580001B7C072B22D801A252F823F0AD150008CE
:10159000CD150008CD150008B3150008C7150008C3
:1015A000BD150008CD150008C715000801F058F951
:1015B00015E0039B5B6900221A6007E0039B5B69EF
:1015C000184601F065F9039801F022F9039B4FF0EA
:1015D000FF325A610398FFF753FF01F041F905B05C
:1015E0005DF804FB000000000000000000000000A7
:1015F00000B589B0034600918DF80730009BB3F128
:10160000FF3F17D0114B1B6903A8114A0099FFF740
:1016100057FE9DF807301846FFF782FF03AB1846C8
:1016200001F026F90346002B09D003AB1846FFF75B
:1016300087FE04E09DF807301846FFF771FF034B63
:101640001B695B69184609B05DF804FB481F002060
:1016500071150008000000000000000000000000FC
:1016600000B585B001900091104B1B690393019B5D
:10167000009A5A61019B9A68039B9B689A4203D81F
:101680000198FFF7FDFE0DE00398FFF7F9FE0390C8
:10169000064A019B1361019B01221A740399019868
:1016A000FEF77EFD05B05DF804FB00BF481F00207B
:1016B00008B501F0BDF80346002B01D000F020F87A
:1016C00008BD00BF00000000000000000000000096
:1016D00082B0094B1B689B680193074B1B699B6891
:1016E0000093019A009B9A428CBF01230023DBB236
:1016F000184602B0704700BF481F002000000000DD
:1017000000B583B00C4B1B6901930B4801F068F8DE
:101710000246094B1A61084B1B6901221A74019891
:10172000FFF7D6FE0190044B1B6901991846FEF79E
:1017300037FD03B05DF804FB481F002000000000E7
:1017400000B583B00C4B1B6901930B4801F048F8BE
:101750000246094B1A61084B1B6901221A74019851
:10176000FFF7B6FE0190044B1B6901991846FEF77E
:1017700017FD03B05DF804FB481F002000000000C7
:1017800084B00190019B03F0070303930A4BDB68CD
:101790000293029A4FF6FF0313400293039B1A022F
:1017A000029B134343F0BF6343F400330293024AA6
:1017B000029BD36004B0704700ED00E00000000021
:1017C00082B0034600918DF807309DF90730002B59
:1017D0000CDA0C499DF8073003F00F03043B009A24
:1017E000D2B21201D2B20B441A7609E006499DF931
:1017F0000730009AD2B21201D2B20B4483F8002310
:1018000002B0704700ED00E000E100E000000000E1
:1018100008B50E4B00229A600320FFF7B1FF0C4A77
:101820000B4BDB6843F08073D3600A4A094B1B689B
:1018300043F00103136001216FF00400FFF7C0FFC4
:1018400002216FF00100FFF7BBFF08BD00ED00E0D3
:10185000F0ED00E0001000E00000000000000000DB
:1018600082B020230193019B83F3118802B070475B
:1018700082B000230193019B83F3118802B070476B
:1018800008B5FFF7EDFF08BD0000000000000000F4
:1018900008B5FFF7EDFF08BD0000000000000000E4
:1018A00082B000230193019B83F3118862B602B0DA
:1018B000704700BF000000000000000000000000B2
:1018C000704700BF000000000000000000000000A2
:1018D00008B5FFF7E5FF08BD0000000000000000AC
:1018E00008B5FFF7CDFF08BD0000000000000000B4
:1018F00008B5FFF7CDFF08BD0000000000000000A4
:1019000000B583B0184B1B6A0133174A1362164B9C
:101910005B69164A934224D0134B5B699A68013A7B
:101920009A6019E0104B5B690193019BDB6800939F
:10193000019B0022DA60019B1B680C4A5A60019BE4
:101940001B68094A5361FFF7D3FF019B1A69009B8B
:1019500010469847FFF7C4FF034B5B699B68002B59
:10196000E0D003B05DF804FB481F00205C1F00209E
:1019700000B583B00190FFF7A3FFFCE70000000073
:1019800008B5FFF76DFDFFF783FCFFF719FC00F0CA
:10199000E7FE802209490A4800F09AF80246094BFE
:1019A0001A61084B1B6901221A74FFF731FFFFF718
:1019B0008FFF0548FFF754FB08BD00BFE028000873
:1019C000701F0020481F0020A42A0008000000000B
:1019D00008B5FFF795FF08BD0000000000000000FB
:1019E00082B020230193019B83F3118802B07047DA
:1019F00082B000230193019B83F3118802B07047EA
:101A000082B00190019B019A1A6002B0704700BF3A
:101A100082B00190019B1A68019B9A4214BF012376
:101A20000023DBB2184602B0704700BF0000000080
:101A300082B00190019B019A1A60019B019A5A6041
:101A400002B070470000000000000000000000002D
:101A500084B00190019B1B680393039B1A68019B50
:101A60001A60039B184604B0704700BF00000000D6
:101A700008B5FFF7B5FF08BD00000000000000003A
:101A800008B5FFF7B5FF08BD00000000000000002A
:101A900000B583B001900198FFF7F2FC03461846A9
:101AA00003B05DF804FB00BF000000000000000070
:101AB00000B583B0019001990820FFF799FD03B0AC
:101AC0005DF804FB000000000000000000000000C2
:101AD00000B585B0039002910192039B019A9A6030
:101AE000039B02221A74039B00225A74039B019ADF
:101AF000DA62039B00229A62039B00225A62039BD4
:101B000018331846FFF77CFF039B1C331846FFF77A
:101B10008FFF039B184605B05DF804FB0000000032
:101B200000B585B00190019B9B68383B0393039BF4
:101B3000A3F16402039BDA60039BDB68019A1269DC
:101B40001A64039BDB68019A52695A64039BDB6841
:101B5000074A1A66019B1968019BDB681A460398BD
:101B6000FFF7B6FF0346184605B05DF804FB00BF5B
:101B7000B9010008000000000000000000000000A3
:101B800000B585B00190002303932C2200213D482D
:101B900000F09EFE3B4A019B1360002303936BE021
:101BA000039A13469B001344DB00364A1344181D66
:101BB000039B1B01344A13441022194600F078FE9F
:101BC000039BDBB2184600F033F9039BDBB21846E7
:101BD00000F08EF9034618462A49039A13469B00E3
:101BE0001344DB000B44283302461A702549039A3C
:101BF00013469B001344DB000B44293302221A7066
:101C00002049039A13469B001344DB000B44043322
:101C10001B68002B2DD01B49039A13469B001344CD
:101C2000DB000B4428331B78002B02D0012B0BD098
:101C300015E01449039A13469B001344DB000B4440
:101C4000293300221A7014E00E49039A13469B00B0
:101C50001344DB000B44293301221A7009E00949BF
:101C6000039A13469B001344DB000B4429330222E2
:101C70001A70039B01330393039B002B90D005B094
:101C80005DF804FB00080020F028000800000000B8
:101C900000B583B000230193002301931AE010499B
:101CA000019A13469B001344DB000B4404331B686A
:101CB000002B0CD00A49019A13469B001344DB0009
:101CC0000B4404331B68019AD2B210469847019B1B
:101CD00001330193019B002BE1D003B05DF804FBBD
:101CE00000080020000000000000000000000000CC
:101CF00084B00291019303468DF80F3013468DF89E
:101D00000E309DF80F30002B2DD1184B1B68002B87
:101D100029D09DF80F20154B1B680299B1FBF3F1F8
:101D2000124813469B001344DB0003441833196028
:101D30009DF80F200D4913469B001344DB000B4414
:101D40001D339DF80E201A709DF80F20074B1B685D
:101D50000199B1FBF3F1054813469B001344DB00E6
:101D600003442433196004B0704700BF000800200A
:101D700010B582B003468DF807309DF80730002B70
:101D800050D19DF80720284913469B001344DB00DF
:101D90000B4410331B78002B19D09DF807202249E3
:101DA00013469B001344DB000B44083319689DF86D
:101DB00007201D4813469B001344DB0003440C33EB
:101DC0001B68012202FA03F39BB24B8318E09DF8D3
:101DD0000720154913469B001344DB000B440833CE
:101DE00019689DF80720104813469B001344DB0038
:101DF00003440C331B68012202FA03F39BB20B83EA
:101E00009DF807409DF80730184600F071F803462A
:101E10001946054A23469B002344DB00134428331C
:101E20000A461A7002B010BD000800200000000031
:101E300010B582B003468DF807309DF80730002BAF
:101E400050D19DF80720284913469B001344DB001E
:101E50000B4410331B78002B19D09DF80720224922
:101E600013469B001344DB000B44083319689DF8AC
:101E700007201D4813469B001344DB0003440C332A
:101E80001B68012202FA03F39BB20B8318E09DF852
:101E90000720154913469B001344DB000B4408330D
:101EA00019689DF80720104813469B001344DB0077
:101EB00003440C331B68012202FA03F39BB24B83E9
:101EC0009DF807409DF80730184600F011F80346CA
:101ED0001946054A23469B002344DB00134428335C
:101EE0000A461A7002B010BD000800200000000071
:101EF00084B003468DF8073002238DF80F309DF82B
:101F00000730002B50D19DF807302A4A1B0113449B
:101F10000C331B78002B20D09DF807202649134650
:101F20009B001344DB000B4408331B6819699DF8C0
:101F30000720214813469B001344DB0003440C3365
:101F40001B6821FA03F303F00103002B0CBF0123EC
:101F50000023DBB28DF80E301BE09DF807201649F8
:101F600013469B001344DB000B4408331B681969BC
:101F70009DF80720104813469B001344DB000344E0
:101F80000C331B6821FA03F3DBB203F001038DF875
:101F90000E309DF80E30002B03D001238DF80F304A
:101FA00002E000238DF80F309DF80F30184604B082
:101FB000704700BFF0280008000800200000000063
:101FC00010B582B003468DF807309DF807201B49F5
:101FD00013469B001344DB000B44083319689DF83B
:101FE0000720164813469B001344DB0003440833C4
:101FF0001B6858699DF80720104C13469B0013443A
:10200000DB0023440C331B68012202FA03F3434034
:102010004B619DF807409DF807301846FFF768FFB1
:1020200003461946054A23469B002344DB0013441C
:1020300028330A461A7002B010BD00BF0008002005
:1020400000B583B003468DF807309DF8072093490B
:1020500013469B001344DB000B4429331B78002BF1
:1020600002D0012B66D0F0E09DF807208B49134683
:102070009B001344DB000B4420331B68002B38D13A
:102080009DF80720854913469B001344DB000B4451
:10209000293301221A709DF807209DF807107F4808
:1020A0000B469B000B44DB000344183319687B4844
:1020B00013469B001344DB000344143319609DF85E
:1020C00007209DF8071075480B469B000B44DB006A
:1020D00003441D331878714913469B001344DB00F9
:1020E0000B441C3302461A709DF807301846FFF760
:1020F0003FFE9DF80720694913469B001344DB000F
:102100000B4420331B68002B00F0C5809DF807208E
:10211000624913469B001344DB000B4420331B68C9
:10212000591E5E4813469B001344DB0003442033D2
:102130001960B0E09DF80720584913469B001344EE
:10214000DB000B4414331B68002B5ED19DF8072085
:10215000524913469B001344DB000B441C331B788D
:10216000002B24D19DF807204C4913469B001344B3
:10217000DB000B44293300221A709DF807209DF8DC
:10218000071046480B469B000B44DB0003442433F6
:102190001968424813469B001344DB000344203374
:1021A00019609DF807301846FFF742FE2DE09DF8B4
:1021B00007209DF8071039480B469B000B44DB00B5
:1021C000034418331968354813469B001344DB0059
:1021D0000344143319609DF80720304913469B00CF
:1021E0001344DB000B441C331B78013BD8B22B4952
:1021F00013469B001344DB000B441C3302461A7049
:102200009DF807301846FFF7DBFE9DF807202349AD
:1022100013469B001344DB000B4414331B68002B54
:1022200039D09DF807201D4913469B001344DB005D
:102230000B4414331B68591E184813469B00134463
:10224000DB0003441433196025E09DF8072013498F
:1022500013469B001344DB000B44143300221A6026
:102260009DF807200D4913469B001344DB000B44E7
:10227000203300221A609DF80720084913469B006E
:102280001344DB000B441C3300221A709DF8073006
:102290001846FFF7CDFD03B05DF804FB00080020F1
:1022A00082B020230193019B83F3118802B0704711
:1022B00082B000230193019B83F3118802B0704721
:1022C00008B5FFF7EDFF08BD0000000000000000AA
:1022D00008B5FFF7EDFF08BD00000000000000009A
:1022E000014B1B6A18467047481F00200000000081
:1022F00000B583B0FFF7E4FFFFF7F2FF0190FFF7AF
:10230000E7FF019B184603B05DF804FB00000000E6
:1023100084B0039002910192039A029BD21A019910
:10232000029BCB1A9A4234BF01230023DBB218462A
:1023300004B0704700000000000000000000000032
:1023400000B583B001900091FFF7D2FF0346009AD9
:1023500001991846FFF7DCFF0346184603B05DF805
:1023600004FB00BF000000000000000000000000AF
:1023700000B589B000230793FFF702FB0023079302
:102380005AE0002301932F49079A1346DB009B1A5A
:102390009B000B4414331B6802932A49079A134687
:1023A000DB009B1A9B000B4418331B6803932549E1
:1023B000079A1346DB009B1A9B000B4408331B68EB
:1023C00004932049079A1346DB009B1A9B000B4499
:1023D0001B6805931B49079A1346DB009B1A9B0059
:1023E0000B4404331B68069301AB1846FEF728FE26
:1023F0000146154A079B42F82310134A079B52F8DF
:1024000023101048079A1346DB009B1A9B000344D5
:102410000C331B680B630C4A079B52F823100948C6
:10242000079A1346DB009B1A9B00034410331B687A
:102430004B63079B01330793079B062BA1D909B078
:102440005DF804FB002900082C08002000000000B3
:1024500000B585B0FFF74CFF01900023039332E0F5
:1024600000230293002302932AE01A4A029B52F8A7
:1024700023301A6B019B134419460198FFF760FF44
:10248000034683F00103DBB2002B16D0114A029BF6
:1024900052F823301B7C022B0FD10E4A029B52F8BC
:1024A00023301846FEF7F4FD039B01330393FFF737
:1024B00007FFFFF7FDF8FFF70BFF029B01330293C5
:1024C000029B062BD1D9039B072BC9D905B05DF818
:1024D00004FB00BF2C0800200000000000000000EA
:1024E00000B583B00190084B1B695B6B4FF47A72A7
:1024F00002FB03F303F2E733044AA2FB03239B0925
:102500001846FEF70DFEEEE7481F0020D34D62107F
:1025100000B583B00190084B1B695B6B4FF47A7276
:1025200002FB03F303F2E733044AA2FB03239B09F4
:102530001846FEF7F5FDEEE7481F0020D34D621068
:1025400000B583B00190FFF7A3FB084B1B695B6BE1
:102550004FF47A7202FB03F303F2E733044AA2FB5F
:1025600003239B091846FEF7DBFDECE7481F00201C
:10257000D34D6210000000000000000000000000C9
:1025800000B583B00190084B1B695B6B4FF47A7206
:1025900002FB03F303F2E733044AA2FB03239B0984
:1025A0001846FEF7BDFDEEE7481F0020D34D621030
:1025B00000B583B00190084B1B695B6B4FF47A72D6
:1025C00002FB03F303F2E733044AA2FB03239B0954
:1025D0001846FEF7A5FDEEE7481F0020D34D621018
:1025E00000B583B00190084B1B695B6B4FF47A72A6
:1025F00002FB03F303F2E733044AA2FB03239B0924
:102600001846FEF78DFDEEE7481F0020D34D6210FF
:1026100000B583B00190084B1B695B6B4FF47A7275
:1026200002FB03F303F2E733044AA2FB03239B09F3
:102630001846FEF775FDEEE7481F0020D34D6210E7
:1026400008B5FEF795FA08BD000000000000000084
:10265000704700BF00000000000000000000000004
:1026600082B020230193019B83F3118802B070474D
:1026700082B000230193019B83F3118802B070475D
:1026800008B5FFF7EDFF08BD0000000000000000E6
:1026900008B5FFF7EDFF08BD0000000000000000D6
:1026A00010B582B00B4A0B4B5B6823F001035360FB
:1026B000EFF309831C4623460193019B6833019382
:1026C000019B0093009B83F30988FFF7E1FF02B0B1
:1026D00010BD00BF30EF00E000000000000000006F
:1026E00010B584B0FFF7CCFF174B5B6803F40063B1
:1026F000002B25D0F1EE103A0393EFF309831C462B
:1027000023460293029B683B0293029B4FF0807228
:10271000DA610E4BDB681A46029B1A66029B019334
:10272000019B83F30988FEF7D3FF0346002B03D0F8
:10273000029B074A9A6105E0029B064A9A6101E002
:10274000FFF7A6FF04B010BD00ED00E030EF00E0A1
:10275000C9010008CC0100080000000000000000D2
:10276000034B044A1A60044B044A1A60704700BFC6
:10277000401F0020B0210020441F00200000012045
:1027800082B020230193019B83F3118802B070472C
:1027900082B000230193019B83F3118802B070473C
:1027A00008B5FFF7EDFF08BD0000000000000000C5
:1027B00008B5FFF7EDFF08BD0000000000000000B5
:1027C00082B00190019B019A1A60019B019A5A60A4
:1027D00002B0704700000000000000000000000090
:1027E00084B00190019B1B680393039B1A68019BB3
:1027F0001A60019B1B68019A5A60039B184604B03B
:10280000704700BF00000000000000000000000052
:1028100082B00190019B5B68019A12681A60019B6B
:102820001B68019A52685A60019B184602B07047B3
:10283000064B1B689A68054B1B699B689A428CBFC4
:1028400001230023DBB21846704700BF481F002059
:1028500008B5FFF7A5FF08BD00000000000000005C
:1028600008B5FFF7A5FF08BD00000000000000004C
:1028700082B00190019BDB68002B14BF0123002371
:10288000DBB2184602B070470000000000000000F4
:1028900082B00190019B9B685A1C019B9A6002B018
:1028A000704700BF000000000000000000000000B2
:1028B00010B5431E0A44914204D011F8014B03F8AD
:1028C000014FF8E710BD000000000000000000000C
:1028D00002440346934202D003F8011BFAE7704713
:1028E0006D61696E0000000069646C6500000000A5
:1028F0004120000800000048050000000000000022
:10290000E124000800000000C600000001000000F3
:102910000200000048080020900B0020112500084C
:1029200000000000BC0000000200000005000000E4
:10293000900B0020D80E0020412500080000000068
:10294000B2000000030000000A000000D80E0020C2
:10295000201200208125000800000000A8000000CF
:102960000400000014000000201200206815002060
:10297000B1250008000000009E00000005000000D6
:102980002800000068150020B0180020E12500088C
:10299000000000009400000006000000500000004D
:1029A000B0180020F81B00201126000800000000CD
:1029B0008A0000000700000064000000F81B0020EF
:1029C000401F0020A0040028000000005FF7FFFF68
:1029D00005515565DFFF0000007700000000000092
:1029E0008000000000000000FFFFFFFF5555555517
:1029F000FFFF0000000000000000000000000000D9
:102A000000000000FFFFFFFF55555551FFFF00007C
:102A100000000000000000000000000000000000B6
:102A2000FFFFFFFF55555555FFFF00000000000058
:102A3000000000000000000000000000FFFFFFFF9A
:102A400055555555FFFF0000000000000000000034
:102A50000000000000000000FFFFFFFF5555555526
:102A6000FFFF000000000000000000000000000068
:102A7000000000000000000055555555FFFF000004
:102A80000000000000000000000000000000000046
:102A90000000000055555555FFFF000000000000E4
:102AA00000000000E8280008B01F002008210020D6
:102AB0000100000071190008000000002C2C000823
:102AC000AC210020AC210020AC2100202C2C0008DF
:102AD0000000000000000000000000002C2C000896
:102AE0000000000000000000000000002C2C000886
:102AF0000000000000000000000000002C2C000876
:102B00000000001000000010000000102C2C000835
:102B10000000000000000000000000002C2C000855
:102B20000000000000000000000000002C2C000845
:102B30000000000000000000000000000000024053
:102B400008000240010000000000000000000B002F
:102B5000000002401C0002400200000000000000D3
:102B600004010C000000024030000240040000009C
:102B70000000000008020D00000002404400024076
:102B800008000000000000000C030E0000000240DE
:102B900058000240100000000000000010040F0068
:102BA000000002406C000240200000000000000015
:102BB00014051000000002408000024040000000A8
:102BC0000000000018061100000402400804024042
:102BD00080000000000000000007380000040240F0
:102BE0001C0402400001000000000000040839003D
:102BF0000004024030040240000200000000000017
:102C000008093A00000402404404024000040000A5
:102C1000000000000C0A3B0000040240580402407F
:0C2C20000008000000000000100B3C0049
:04000005080001D11D
:00000001FF
