:020000040800F2
:1000000000040020D1010008510400085104000838
:10001000510400085104000851040008510400086C
:10002000510400085104000851040008D1100008D0
:10003000510400085104000851040008F11600089A
:10004000510400085104000851040008510400083C
:10005000510400085104000851040008510400082C
:100060005104000851040008510400085107000819
:1000700021070008F1060008C106000891060008E3
:100080006106000831060008510400085104000808
:1000900051040008510400085104000851040008EC
:1000A00051040008510400085104000851040008DC
:1000B00051040008510400085104000851040008CC
:1000C00051040008510400085104000851040008BC
:1000D0005104000851040008511700088116000857
:1000E000510400085104000851040008510400089C
:1000F000510400085104000851040008510400088C
:10010000510400085104000851040008510400087B
:10011000510400085104000851040008510400086B
:1001200001060008D1050008A105000871050008B6
:10013000410500085104000851040008510400085A
:10014000510400085104000851040008510400083B
:10015000510400085104000851040008510400082B
:10016000510400085104000851040008510400081B
:10017000510400085104000851040008510400080B
:1001800051040008510400085104000851040008FB
:1001900051040008510400085104000851040008EB
:1001A0002DE9F04F2DED108AC1F80CD0C3689D46A3
:1001B000BDEC108ABDE8F08F002383F31188284638
:1001C000A047002001F004FA01F022F800DFFEE76A
:1001D00072B6344880F3098840F20000CCF2000087
:1001E0004EF63471CEF200010860BFF34F8FBFF3BB
:1001F0006F8F40F20000C0F2F0004EF68851CEF250
:1002000000010860BFF34F8FBFF36F8F4FF0000006
:10021000E1EE100A4EF63C71CEF2000108600620B5
:1002200080F31488BFF36F8F00F0C2FF01F058FB1A
:100230004FF055301C491D4A91423CBF41F8040B18
:10024000FAE71B49174A91423CBF41F8040BFAE711
:100250001849194A194B9A423EBF51F8040B42F80B
:10026000040BF8E700201649164A91423CBF41F8BA
:10027000040BFAE700F054FF00F092FF124C134D0C
:10028000AC4203DA54F8041B8847F9E700F000FB9E
:100290000F4C104DAC4203DA54F8041B8847F9E7C1
:1002A00000F076BF000800200000002000040020BD
:1002B00000040020181B000800080020240800206B
:1002C00028080020A00E0020A0010008A0010008BE
:1002D000A0010008A00100080000000000000000CC
:1002E000014B5B6883607047001000E00000000075
:1002F000F0B50021022508E01A6A22EA0404264328
:100300001E6240082DD0AD000131C307F9D51F4B47
:1003100001225C688A4024EA02025A604E000322ED
:100320009C68B240D24314409C60DE6801F0070430
:100330001640A4004FF0070E0F27022DDE600EFAC4
:1003400004F607FA04F40DD01F683A402A4307293F
:100350001A60D1D95A6A22EA0404264340085E6230
:10036000D1D1F0BD71450BD81F6A27EA040426439A
:100370001E62064C23681A4042F002022260C0E767
:100380005F6A27EA040426435E62F2E70008004839
:10039000F0B5284D447C2B68012202FA04F61E4277
:1003A00045D1254A254E42F8341002EBC4045A06C2
:1003B000666004D1224C626942F00102626113F46A
:1003C000786F04D11E4C626942F002026261426899
:1003D00007681468866824F00F04146090F810E031
:1003E0000F2404FA0EF47C6033424FF000041460D2
:1003F00016D1A9B1817C4A09920001F1604602F14F
:10040000604202F5614206F5614601F01F010124D8
:1004100004FA01F1C02786F80073C2F88011116058
:10042000417C01228A4013432B600020F0BD10461E
:10043000F0BD00BF9C0E002028080020280D0020E1
:10044000001002400000000000000000000000005A
:10045000FEE700BF000000000000000000000000F8
:10046000704700BF00000000000000000000000016
:10047000144B70B4002204461D694261A868A1684B
:1004800081420BD822741B689A689142FBD95A6842
:100490006260236014605C6070BC70472A741A4606
:1004A000126891688842FBD95068686001262A600A
:1004B000056055601C6126742946204670BCFFF714
:1004C0006FBE00BF04090020000000000000000013
:1004D000F8B52022034682F3118800F59672C0F821
:1004E0006C11002403F5D67103F5C875C3F89C217F
:1004F000104FC3F88C718022022600F5D470C3F827
:10050000A80183F8A0612846C3F8AC11C3F8B01164
:10051000C3F8704183F8A141C3F8B841C3F8B441AE
:10052000C3F89821C3F8BC21FFF7A2FF84F3118818
:100530002846F8BDB90100080000000000000000D6
:10054000094B1968C1F3034159B10848826D10B5D0
:100550000C045C600AB1C06D9047BDE8104001F02A
:1005600057B801F055B800BF000402402808002029
:10057000094B1968C1F3033159B10848026D10B530
:100580000C035C600AB1406D9047BDE8104001F07B
:100590003FB801F03DB800BF000402402808002029
:1005A000094B1968C1F3032159B10848826C10B591
:1005B0000C025C600AB1C06C9047BDE8104001F0CD
:1005C00027B801F025B800BF000402402808002029
:1005D000094B1968C1F3031159B10848026C10B5F1
:1005E0000C015C600AB1406C9047BDE8104001F01E
:1005F0000FB801F00DB800BF000402402808002029
:1006000008B5074B196811F00F0105D0054A59606C
:10061000936B0BB1D06B9847BDE8084000F0F8BF72
:100620000004024028080020000000000000000034
:10063000094B1968C1F3036159B10848026B10B541
:100640000C065C600AB1406B9047BDE8104000F0BA
:10065000DFBF00F0DDBF00BF00000240280800201F
:10066000094B1968C1F3035159B10848826A10B5A2
:100670000C055C600AB1C06A9047BDE8104000F00C
:10068000C7BF00F0C5BF00BF00000240280800201F
:10069000094B1968C1F3034159B10848026A10B502
:1006A0000C045C600AB1406A9047BDE8104000F05D
:1006B000AFBF00F0ADBF00BF00000240280800201F
:1006C000094B1968C1F3033159B10848826910B563
:1006D0000C035C600AB1C0699047BDE8104000F0AF
:1006E00097BF00F095BF00BF00000240280800201F
:1006F000094B1968C1F3032159B10848026910B5C3
:100700000C025C600AB140699047BDE8104000F0FF
:100710007FBF00F07DBF00BF00000240280800201E
:10072000094B1968C1F3031159B10848826810B523
:100730000C015C600AB1C0689047BDE8104000F051
:1007400067BF00F065BF00BF00000240280800201E
:1007500008B5074B196811F00F0105D0054A59601B
:1007600013680BB150689847BDE8084000F050BFCF
:1007700000000240280800200000000000000000E7
:1007800008B50A4C0BE0DBB22022237082F31188FB
:100790003221082000F05CFD002383F311882278C9
:1007A000531E002AEFD10923EEE700BF980E002068
:1007B00008B5202383F311880521082000F048FDA7
:1007C000002383F31188F4E700000000000000001C
:1007D00000B50F4B1A7882F001021A7083B01B78B3
:1007E0008DF8071073B14FF0904320221A834FF019
:1007F000FF3301220DF10701064800F081FD03B02F
:100800005DF804FB4FF0904320225A83EFE700BFCE
:1008100060090020B808002000000000000000006F
:1008200070B5174E56F8044FB44220D0054602E08A
:100830002468B4421BD0E3682B43E36015B12269FE
:100840001342F5D06068A168436A027C0B430A2A10
:1008500043620DD00B2AEBD1426932EA0303E7D1A0
:100860000023436100F09CFE2468B442E3D170BDD4
:1008700042691342DCD00023436100F091FEF3E7AC
:1008800088080020000000000000000000000000B8
:100890001A4B1B489A6A4FF0FF3100222DE9F04FA6
:1008A00099629A621C6919611A61DC68D960DA6020
:1008B000D96941F08051D961016841F480710160CA
:1008C000196A01F44071B1F5007F89B003D04FF48B
:1008D000803119621A62094B1A6A120407D41A6A23
:1008E00042F400721A621A6A42F400421A62054C1B
:1008F000054A06490648002323600CE00010024028
:10090000007000409C0E00207C1900080800024086
:1009100028080020516800240C6040F8334001335F
:100920000C2B02F11402F5D1CD4FCE49DFF874A3A0
:10093000DFF874B3DFF87493CB4DDFF87483DFF81E
:1009400074C3DFF874E3C94EC948CA4A4FF0FF3395
:100950007B604B60DAF81810C74F41F00101CAF80C
:100960001810DBF8001041F02001CBF80010DAF885
:1009700014B04FF090414BF47F0BCAF814B06FF4F1
:100980000A6B4C60C1F808B04FF6DF7BCF60C1F84E
:1009900014B04FF4EE47DFF824B30F624C624FF00F
:1009A0005537C1F800B04FF6FF714FF0800BC9F812
:1009B0000440C9F80830C9F80C70C9F81410C9F817
:1009C0002040C9F82440C9F800B0DFF8F492C8F814
:1009D0000440C8F80830C8F80C90C8F81410C8F8DB
:1009E0002040C8F82440C8F80040CCF80440CCF8B7
:1009F0000830CCF80C70CCF81410CCF82040CCF8AF
:100A00002440CCF80040CEF80440CEF80830CEF8B0
:100A10000C70CEF81410CEF82040CEF82440CEF85A
:100A200000407460B360F760716134627462346076
:100A300044608460C7604161046244620460546041
:100A40009460D76051611462546214602A46DFF8E2
:100A5000749242F8049B894EDFF86CE2DFF86C92E6
:100A60006A6005F174012964C5F84C901021844A2C
:100A700001914FF0C0096C616A67A963AC62ED62D5
:100A80002D65746040228EF826934FF00109CEF850
:100A9000842185F80890CEF8042005F10C0205F1B8
:100AA000540EEA602A6105F16402DFF824C2C5F839
:100AB00018E0C5F824E0C5F820E0EA6105F1300E41
:100AC000EA63AA646A646F4A6F4FDFF808826F486E
:100AD000C5F830E0C5F834E0AA67F260DFF8F8E165
:100AE000C6F808E00822ACF1140E326186F80090D6
:100AF0007470B470664AC6F814C04FF0070CC6F89C
:100B000018E0426007F1140E84600022C0F800C0B3
:100B100088F823B002A80293FB613F6000237F6046
:100B2000CDE90623C7F814E0C7F818E0039404944D
:100B30000594BC603C62BC65FFF7D2FB02A800F0E4
:100B40003FFB049BBB65C8F80840D8F80CC0514B6C
:100B5000DFF888E1C7F830B04FF6FF020CEA020276
:100B60001343C8F80C30DEF80C304B4887F8394096
:100B700043F08073CEF80C3003680199C7F854B085
:100B800007F1440C43EA090307F1400E07F128027C
:100B90004FF0200B3C65FC6487F838900360C7F881
:100BA00040E088F81F103A6188F822B0C7F844C0C6
:100BB000C7F848C084F3118862B68BF31188374BAD
:100BC000DFF81CC1DFF81CE1C3F8004103F59E7299
:100BD00003F1BC0803F59C71022703F59070C3F87C
:100BE000289183F83141C3F84C91C3F84841C3F8C8
:100BF0004441C3F82C81C3F8FCC0C3F81CE183F85E
:100C00003071C3F83811C3F83C21C3F84021FFF715
:100C10002FFC84F311888BF311882B7A4B4505D177
:100C2000DAF81C3043F40033CAF81C30AA6F1C49B0
:100C30006B6FA1FB0212120B44F2400E012740F22F
:100C40002D144FF0FF300221DA60C3F804E00022D7
:100C50009F601C601862297282F31188202343E090
:100C600000000240000402408808002000140048F0
:100C700000180048001C004805515565280D00204B
:100C80000044004080A812010409002010E000E0A8
:100C90003F1901000003FA05001000E0480D002094
:100CA000B5814E1B001002400000014000040048C6
:100CB00000080048000C004800100048A00400286C
:100CC000555555516C1A000800E100E0411000082C
:100CD000A419000800ED00E000480040F0ED00E03D
:100CE00051100008B901000883F3118833787F4A56
:100CF0007260BB427E4C00F09D807169B5694A68A4
:100D0000D1F800E010686F68B368D5F8009000244F
:100D100020F00F00B47074701060097C70684FF0A0
:100D20000F0808FA01F1CEF80410396821F00F011C
:100D3000396095F810E0056A8169C76945F0C10C12
:100D4000C56808FA0EFEA542694DC9F804E047F0EF
:100D50004007D0F814E01C60F0685C60B0FBFEF067
:100D60009C6041F48671D8604FF0FF30186241F00A
:100D700001015F6005F11C07C3F808C01960D76066
:100D8000336914BF222020200343012151601360E6
:100D90001368022143F001031360317084F311885A
:100DA0004FF48060FFF7A4FA4FF40060FFF7A0FA59
:100DB000504A514B14701C70202383F31188B27871
:100DC000012A6ED0002383F31188202282F3118838
:100DD00072784749012A56D0002484F311882023D1
:100DE00083F31188716932694B680F681868434D45
:100DF00020F00F001860087C0F21814042F0820231
:100E000040207960DD6058601A601A6801210A4349
:100E10001A60B17084F3118839493A48FFF758FBDA
:100E200039493A48FFF754FB204600F0D1FB09B09E
:100E3000BDE8F08F3649374D6069FFF7A9FA3649AA
:100E4000A069FFF7A5FAE969344A6068344B41F4B8
:100E50008021E961C027802182F82773C2F88411BC
:100E6000516082691340B3F1102F3AD07169B269B1
:100E7000B3684868516803F1240400222833846071
:100E80008B60B28339E7886942680568146824F08A
:100E90000F041460007C4B700F2383406B60536819
:100EA0009AE768696B684168DD680B68D0F800E014
:100EB00023F00F030B60037C3069A54208FA03F3AB
:100EC00014BF22252025CEF8043045EA00034868E7
:100ED000CF604A600B600B6843F001030B60B47095
:100EE00070E7236943F4A0632361BFE70008002093
:100EF000280D002060090020980E0020280B0020FB
:100F000081070008680B0020B1070008680900206D
:100F1000B10F000800100240610F000800E100E07E
:100F2000001400100000000000000000000000009D
:100F3000704700BF0000000000000000000000003B
:100F4000704700BF0000000000000000000000002B
:100F5000704700BF0000000000000000000000001B
:100F60000B0716D48369416870B55D681E682A68EE
:100F7000096822F00F022A601A7C0F239340022294
:100F800073600446427049B188476378022B05D0EC
:100F900070BD72B6034B044A5A62FEE700236370C9
:100FA00070BD00BF040900208C1A0008000000007A
:100FB0000B070DD483782DE9F04104466BB94368E3
:100FC000DB68002B32D0818BBDE8F04189B2184735
:100FD00072B6174B174A5A62FEE7416942684B687E
:100FE0000F681D68966825F00F051D600D7C0F21A8
:100FF000A94002257960857036B1B047A378AB422D
:1010000014D1636962685B68D1682269002914BFE2
:10101000222120210A430025012104F11C00A57092
:10102000D86059601A601A680A431A60BDE8F081F6
:10103000040900208C1A00080000000000000000D5
:10104000024A136843F08003136070470044004075
:10105000FEE700BF000000000000000000000000EC
:1010600010B4202383F31188037C072B0ED8DFE80C
:1010700003F0270D0D2308040D084269936801331E
:10108000936090E80C001A60026853604FF0FF34E0
:10109000002281680D4B446102741B689A688A4281
:1010A000FBD25A684260036000211060586081F3EF
:1010B00011885DF8044B7047436900221A60E5E728
:1010C000002383F311885DF8044B70470409002066
:1010D000064A536823F001035360EFF30983683332
:1010E00083F30988002383F31188704730EF00E011
:1010F000074B19691A6810B4087410681860012445
:1011000043601A61147410465DF8044BFFF748B849
:1011100004090020000000000000000000000000A2
:10112000F0B4144E144D154C154B164906F17007CA
:101130009C4212D904391A4651F8040F42F8040BA4
:101140009442F9D8DA43144424F0030404342344C9
:101150009D4204D9002243F8042B9D42FAD8BE4296
:1011600005D031697369B469F5691036E0E7F0BC00
:10117000704700BF981A0008A00E0020A00E0020A3
:10118000A00E00203C1B0008000000000000000032
:10119000FEE700BF000000000000000000000000AB
:1011A000704700BF000000000000000000000000C9
:1011B000704700BF000000000000000000000000B9
:1011C0000E4B0F495A688368F0B48F6D4168C6684A
:1011D000D0E90445D31ADB1BE4180268836045F1AB
:1011E00000058B4206F1010688BF43609342C6604A
:1011F000C0E9044538BF0360F0BC7047001000E050
:1012000004090020000000000000000000000000B1
:101210000D4A1068036810B40121146913605A6004
:10122000106101740022A168227400E01B689A68B2
:101230008A42FBD85A6862602360214614605C6071
:101240005DF8044BFEF7ACBF04090020000000006D
:1012500070B54B1C86B02FD01B4C636925699A680A
:101260000595064691421948049004D91B68891ACD
:101270009A688A42FAD35868029001AA01930260E0
:101280005A6003919A68104D511A996030464FF098
:10129000FF36E661FFF72CFF049B4BB1019B039ADD
:1012A0009868029902449A600B60019B5960EE6154
:1012B0002369586906B070BD034CFFF719FF236915
:1012C000586906B070BD00BF040900206110000815
:1012D00069B1084B10B4024644681B69042083E8D6
:1012E0001400236053605DF8044BFFF7B1BF4FF06B
:1012F000FF307047040900200000000000000000DB
:101300002DE9F84F984604460D461646D0F81C9035
:10131000202383F31188DFF88CB0DBF8203000271E
:1013200008EB030AA36803B36269A368511C013B7D
:101330006161A3602B781370236962699A4224BFAC
:10134000E36863610135B9F1000F01D02046C84759
:10135000002383F31188013E07F1010717D02023F2
:1013600083F31188A368002BDED108F1FF3203322A
:1013700010D8DBF82010C1EB0A01884505D32046C0
:10138000FFF7A6FF0028CDD0002383F3118838464D
:10139000BDE8F88F41462046FFF79AFF0028C1D0EC
:1013A000F2E700BF04090020000000000000000078
:1013B0003030FFF7A5BF00BF0000000000000000B4
:1013C00030304FF0FF33FFF79BBF00BF000000003D
:1013D000F8B504460F461646202383F3118803E030
:1013E000FFF776FF002819DBA56831462046002D5F
:1013F000F6D06269A368511C013B6161A36017705C
:10140000236962699A4224BFE3686361E3690BB1AF
:1014100020469847002080F31188F8BD85F3118895
:10142000F8BD00BF00000000000000000000000048
:101430003030FFF7CDBF00BF00000000000000000B
:1014400030304FF0FF32FFF7C3BF00BF0000000095
:101450002DE9F84F984604460D461646D0F81C90E4
:10146000202383F31188DFF88CB0DBF820300027CD
:1014700008EB030AA36803B3A269A368511C013BEC
:10148000A161A36013782B702369A2699A4224BFDB
:10149000E368A3610135B9F1000F01D02046C847C8
:1014A000002383F31188013E07F1010717D02023A1
:1014B00083F31188A368002BDED108F1FF320332D9
:1014C00010D8DBF82010C1EB0A01884505D320466F
:1014D000FFF7FEFE0028CDD0002383F311883846A5
:1014E000BDE8F88F41462046FFF7F2FE0028C1D044
:1014F000F2E700BF04090020000000000000000027
:101500000C30FFF7A5BF00BF000000000000000086
:101510000C304FF0FF33FFF79BBF00BF000000000F
:1015200070B5202304460E4683F3118803E0FFF7CD
:10153000CFFE00281ADBA56831462046002DF6D0E4
:10154000A169A36820694A1C013B8242A360A26191
:1015500028BFE3680D7828BFA361E3690BB120467B
:101560009847002383F31188284670BD85F31188BE
:1015700070BD00BF0000000000000000000000007F
:101580000C30FFF7CDBF00BF0000000000000000DE
:101590000C304FF0FF31FFF7C3BF00BF0000000069
:1015A00000228168084B10B4044602741B689A68D4
:1015B0008A42FBD25A6862602360204614605C60F5
:1015C0005DF8044B704700BF0409002000000000D4
:1015D00038B52022034682F311880A4A1469A069AB
:1015E000636104F11805A84206D00368A361FFF700
:1015F000D7FFA069A842F8D10F20BDE83840FFF717
:1016000077BD00BF040900200000000000000000BA
:10161000202383F31188124B5B6813F4006302D11B
:1016200083F311887047F1EE103AEFF309830D4A06
:101630004FF08071D26843F8082C43F84C1CA3F19A
:10164000680282F30988084A1168126989689268F9
:1016500091428CBF054A064A43F8502C704700BFA0
:1016600000ED00E030EF00E004090020C9010008AF
:10167000CC01000800000000000000000000000095
:10168000F8B5194EB5682F68EC692C6240F20F135B
:101690002340CBB173681B69B3B114F0080F0CBFC2
:1016A00000211021E20748BF41F00401A00748BF14
:1016B00041F00801620748BF41F02001E00548BF42
:1016C00041F0400108489847620609D57B0607D5D6
:1016D00073685B6827F040072F600BB1024898479A
:1016E000BDE8F840FFF794BF280D0020000000007F
:1016F00070B5202383F31188124C2646226A56F8CF
:10170000143F0132B342226214D09A68013A9A60BF
:1017100082B91968DD680022DA604E60616182F387
:1017200011881869A847202383F3118863699A6890
:10173000002AEED0002383F31188BDE87040FFF744
:1017400067BF00BF04090020000000000000000087
:101750002DE9F041614D6E6F3768F46934622207FC
:1017600053D1E30546D4A00618D4390601D5220684
:1017700065D463060ED5202383F311886A6CAB6CA5
:1017800056499A4200F0898027F0400737600023CD
:1017900083F31188BDE8F041FFF73ABF202383F3BC
:1017A0001188B28C6B695FFA82F8002B7DD02B6AAE
:1017B0006A6A4A4993427CD06A69484901326A613F
:1017C0005A1C2A6283F800802A6AEB699A4261D225
:1017D0004249EB6801F10C02934207D01868C860D7
:1017E0000021426018465961FFF7DAFE002383F3B7
:1017F0001188BAE7202383F311884FF40070FFF7B4
:101800000FF8002383F31188ADE714F0080F0CBF25
:1018100000208020E30748BF40F02000A10748BF18
:1018200040F04000620748BF40F48070202383F3FB
:101830001188FEF7F5FF002383F3118891E7202339
:1018400083F31188AB6C6A6C24499A4239D0AA6B35
:101850002249581C0132AA63A86493F800802B6CBB
:10186000984201D3CB6B8B641C492B6B01F1300286
:10187000934207D0186808630021426018465961F6
:10188000FFF78EFE1FFA88F8A6F82880002383F35E
:1018900011886EE78B690B629AE78B6B002B3FF424
:1018A00073AF1020FEF7BCFF6EE70420FEF7B8FF11
:1018B0007DE74A69002A3FF47FAF8020FEF7B0FF42
:1018C00094E78A6B002AC2D00820FEF7A9FF27F010
:1018D000C00343F040033360D8E700BF880800200E
:1018E000234A136843F001031360214B1A689207DF
:1018F000FBD55A6822F003025A605A685A601C4AA3
:10190000536813F00C03FAD1116801F0F90111606A
:101910005360136843F480331360154B1A689003C7
:10192000FBD55A6A42F001025A62114B5A6A91077A
:10193000FBD5104A5A6042F201113022D9621A6373
:101940001A6842F080721A60094B1A689201FBD53E
:10195000094A122111605A6842F002025A60044A90
:10196000536803F00C03082BF9D1136B1363704712
:0C19700000100240002D1D00002002406D
:10197C0000000240080002400100000000000000CE
:10198C0000000B00000002401C000240020000009E
:10199C000000000004010C00000002403000024076
:1019AC00040000000000000008020D0000000240CE
:1019BC004400024008000000000000000C030E0070
:1019CC00000002405800024010000000000000001F
:1019DC0010040F00000002406C00024020000000C8
:1019EC0000000000140510000000024080000240BE
:1019FC004000000000000000180611000004024026
:101A0C0008040240800000000000000000073800BD
:101A1C00000402401C040240000100000000000011
:101A2C0004083900000402403004024000020000A7
:101A3C000000000008093A0000040240440402407F
:101A4C0000040000000000000C0A3B0000040240EF
:101A5C00580402400008000000000000100B3C007D
:101A6C00C113000811150008411400089115000855
:101A7C003114000881150008B11300080115000885
:101A8C00444D41206661696C757265003C1B000811
:101A9C00A00E0020A00E0020A00E00203C1B000871
:101AAC000000000000000000000000003C1B0008CB
:101ABC000000000000000000000000003C1B0008BB
:101ACC000000000000000000000000003C1B0008AB
:101ADC000000001000000010000000103C1B00086B
:101AEC000000000000000000000000003C1B00088B
:101AFC000000000000000000000000003C1B00087B
:0C1B0C00000000000000000000000000CD
:101B1800410F0008510F000861040008D1070008B0
:101B2800310F000880250000000000000040000080
:041B380000000000A9
:04000005080001D11D
:00000001FF
